:100000000C942A000C943F000C943F000C943F0089
:100010000C943F000C943F000C943F000C943F0064
:100020000C943F000C943F000C943F000C943F0054
:100030000C943F000C943F000C943F000C943F0044
:100040000C943F000C943F000C943F000C943F0034
:100050000C943F0011241FBECFE5D8E0DEBFCDBF1A
:1000600010E0A0E6B0E0EAE3F2E002C005900D92F5
:10007000A83AB107D9F70E9441000C941B010C94D7
:1000800000000E94B50061E081E00E94D20080E69D
:1000900090E00E94F3002FE38DE093E02150804038
:1000A0009040E1F700C0000062E081E00E94D200D1
:1000B0008EE690E00E94F3002FE38DE093E0215064
:1000C00080409040E1F700C0000063E081E00E94C2
:1000D000D20082E890E00E94F3002FE38DE093E0ED
:1000E000215080409040E1F700C0000064E081E0D2
:1000F0000E94D20083E990E00E94F3002FE38DE09C
:1001000093E0215080409040E1F700C000000E9441
:1001100014012FE78AE196E0215080409040E1F7FA
:1001200000C000000E941801FFCF882361F08BBB44
:10013000C098C198C29A0000C29881E28A95F1F7EE
:10014000000080E0089581E00895882361F08BBB72
:10015000C09AC198C29A0000C29881E28A95F1F7CC
:10016000000080E0089581E008958FEF8ABB87BB8F
:10017000C29883EF91E00197F1F700C0000088E397
:100180000E9495008EE00E94950081E00E949500FB
:1001900083EF91E00197F1F700C0000086E00E9434
:1001A00095000895CF93DF9300D000D0CDB7DEB790
:1001B00090E8998390EC9A8394E99B8394ED9C83D7
:1001C0008150FE01E60FF11D9081890F0E9495007C
:1001D00081E28A95F1F700000F900F900F900F9039
:1001E000DF91CF9108951F93CF93DF93EC01009798
:1001F000A1F08881882399F010E00E94A50083ED8A
:1002000090E30197F1F700C000001F5FFE01E10FCE
:10021000F11D80818111F1CF03C081E001C080E038
:10022000DF91CF911F91089581E00E94950008957C
:0A0230001ABA17BA0895F894FFCF28
:10023A002048616C6C6F20546865726520004D6FB0
:10024A0068616D6564207769746820796F75203AF2
:10025A00290020486F77206974277320676F696EB9
:10026A006720004920686F7065207468617420797E
:08027A006F752772206F6B0005
:00000001FF
