S00D000054696D65722E7372656316
S11300000C942A000C9447000C9447000C9447006D
S11300100C9447000C9447000C9447000C9449003E
S11300200C9447000C9447000C9447000C94470030
S11300300C9447000C9447000C9447000C94470020
S11300400C9447000C9447000C9447000C94470010
S11300500C94470011241FBECFE5D8E0DEBFCDBF0E
S113006010E0A0E6B0E0E4EAF2E002C005900D92F0
S1130070A437B107D9F720E0A4E7B0E001C01D928E
S1130080A937B207E1F70E9446010C9450010C9481
S113009000001F920F920FB60F9211248F9380913C
S11300A077008F5F809377008F910F900FBE0F9032
S11300B01F901895982F9A52903108F5962F9A52BE
S11300C09031F8F4942F9A529031E8F4909178009A
S11300D091111BC0E82FF0E09FEF9183E62FF0E031
S11300E09183E42FF0E0918340937B0060937A0046
S11300F08093790081E08093780082E0089583E022
S1130100089583E0089583E0089584E00895CF93EB
S1130110DF9380917800813009F08BC08DE08EBD33
S113012088EE93E09BBD8ABD89B7806189BF7894CE
S1130130E0917600F0E0EE0FFF1FE05AFF4F808160
S113014085BBE0917500F0E0EE0FFF1FE05AFF4F12
S1130150808182BBE0917700F0E0EE0FFF1FE05A50
S1130160FF4F808188BBCBE7D0E08AE790E029E7A6
S113017030E058C008B604FC55C0E881F0E0A09116
S11301807700B0E0AA0FBB1FA05ABF4F4C91428327
S1130190409177004A3098F0409175004F5F40934A
S11301A07500DC01EC91F0E0A0917500B0E0AA0FBD
S11301B0BB1FA05ABF4F4C914283109277004091CD
S11301C07500463059F540917700442339F1409148
S11301D076004F5F40937600409176004A3010F0ED
S11301E01092760010927500DC01EC91F0E0A09181
S11301F07500B0E0AA0FBB1FA05ABF4F4C914283B9
S113020010927700D901EC91F0E0A0917600B0E073
S1130210AA0FBB1FA05ABF4F4C9142834091740058
S1130220413049F040917400442309F4A3CF82E0A3
S113023003C083E001C082E0DF91CF9108958091F3
S11302407400811121C081E08093740089B78F7E8E
S113025089BFE0917700F0E0EE0FFF1FE05AFF4FF7
S1130260808188BBE0917500F0E0EE0FFF1FE05A3B
S1130270FF4F808182BBE0917600F0E0EE0FFF1F1C
S1130280E05AFF4F808185BB82E0089546E360E336
S113029083E30E945A000E9487000E941F01FFCF3F
S10702A0F894FFCFFC
S11302A43F0006005B004F0066006D007D00070000
S10702B4FF006F00D4
S9030000FC
