:100000000C942A000C943C000C943C000C943C0092
:100010000C943C000C943C000C943C000C943C0070
:100020000C943C000C943C000C943C000C943C0060
:100030000C943C000C94C6000C943C000C943C00C6
:100040000C943C000C943C000C943C000C943C0040
:100050000C943C0011241FBECFE5D8E0DEBFCDBF1D
:1000600020E0A0E6B0E001C01D92A336B207E1F7A0
:100070000E94BE000C94FE000C940000882361F0E6
:100080008BBBC098C198C29A0000C29881E28A9541
:10009000F1F7000080E0089581E00895CF93DF93A9
:1000A00000D000D0CDB7DEB790E8998390EC9A836A
:1000B00094E99B8394ED9C838150FE01E60FF11D32
:1000C0009081890F0E943E0081E28A95F1F700003D
:1000D0000F900F900F900F90DF91CF91089581E0D6
:1000E0000E943E0060E080E00E944E0008958FEF85
:1000F0008ABB87BBC29883EF91E00197F1F700C0FC
:10010000000088E30E943E008EE00E943E0081E0F5
:100110000E943E0083EF91E00197F1F700C00000DC
:1001200086E00E943E0060E080E00E944E0008955C
:10013000882369F080538BBBC09AC198C29A000093
:10014000C29881E28A95F1F7000080E0089581E08D
:100150000895882389F00E9498008091600081367C
:1001600020F00E946F0010926000809160008F5F0D
:100170008093600080E0089581E008950E94EC0083
:100180000E94E90078940E94F700FDCF1F920F9221
:100190000FB60F9211248F9381E0809361008F91AD
:1001A0000F900FBE0F901F9018958AB180698AB981
:1001B00080B5866880BD10BC83E389B908958091BD
:1001C0006100813021F45F9BFECF8CB1089580E007
:1001D00008950E94D50008950E947700089588230D
:1001E00021F00E94A90080E0089581E008950E9416
:1001F000DF00809362000E94EF000895F894FFCF23
:04000003000001EE0A
:00000001FF
